{
  "_format": "hh-sol-artifact-1",
  "contractName": "OPNSwapPair",
  "sourceName": "contracts/OPNSwapPair.sol",
  "abi": [
    {
      "inputs": [
        {
          "internalType": "address",
          "name": "_token0",
          "type": "address"
        },
        {
          "internalType": "address",
          "name": "_token1",
          "type": "address"
        }
      ],
      "stateMutability": "nonpayable",
      "type": "constructor"
    },
    {
      "anonymous": false,
      "inputs": [
        {
          "indexed": true,
          "internalType": "address",
          "name": "owner",
          "type": "address"
        },
        {
          "indexed": true,
          "internalType": "address",
          "name": "spender",
          "type": "address"
        },
        {
          "indexed": false,
          "internalType": "uint256",
          "name": "value",
          "type": "uint256"
        }
      ],
      "name": "Approval",
      "type": "event"
    },
    {
      "anonymous": false,
      "inputs": [
        {
          "indexed": true,
          "internalType": "address",
          "name": "sender",
          "type": "address"
        },
        {
          "indexed": false,
          "internalType": "uint256",
          "name": "amount0",
          "type": "uint256"
        },
        {
          "indexed": false,
          "internalType": "uint256",
          "name": "amount1",
          "type": "uint256"
        },
        {
          "indexed": false,
          "internalType": "uint256",
          "name": "lpMinted",
          "type": "uint256"
        }
      ],
      "name": "LiquidityAdded",
      "type": "event"
    },
    {
      "anonymous": false,
      "inputs": [
        {
          "indexed": true,
          "internalType": "address",
          "name": "sender",
          "type": "address"
        },
        {
          "indexed": false,
          "internalType": "uint256",
          "name": "amount0",
          "type": "uint256"
        },
        {
          "indexed": false,
          "internalType": "uint256",
          "name": "amount1",
          "type": "uint256"
        },
        {
          "indexed": false,
          "internalType": "uint256",
          "name": "lpBurned",
          "type": "uint256"
        }
      ],
      "name": "LiquidityRemoved",
      "type": "event"
    },
    {
      "anonymous": false,
      "inputs": [
        {
          "indexed": true,
          "internalType": "address",
          "name": "sender",
          "type": "address"
        },
        {
          "indexed": false,
          "internalType": "address",
          "name": "tokenIn",
          "type": "address"
        },
        {
          "indexed": false,
          "internalType": "uint256",
          "name": "amountIn",
          "type": "uint256"
        },
        {
          "indexed": false,
          "internalType": "uint256",
          "name": "amountOut",
          "type": "uint256"
        }
      ],
      "name": "Swap",
      "type": "event"
    },
    {
      "anonymous": false,
      "inputs": [
        {
          "indexed": true,
          "internalType": "address",
          "name": "from",
          "type": "address"
        },
        {
          "indexed": true,
          "internalType": "address",
          "name": "to",
          "type": "address"
        },
        {
          "indexed": false,
          "internalType": "uint256",
          "name": "value",
          "type": "uint256"
        }
      ],
      "name": "Transfer",
      "type": "event"
    },
    {
      "inputs": [
        {
          "internalType": "uint256",
          "name": "amount0",
          "type": "uint256"
        },
        {
          "internalType": "uint256",
          "name": "amount1",
          "type": "uint256"
        }
      ],
      "name": "addLiquidity",
      "outputs": [
        {
          "internalType": "uint256",
          "name": "lpMinted",
          "type": "uint256"
        }
      ],
      "stateMutability": "nonpayable",
      "type": "function"
    },
    {
      "inputs": [
        {
          "internalType": "address",
          "name": "",
          "type": "address"
        },
        {
          "internalType": "address",
          "name": "",
          "type": "address"
        }
      ],
      "name": "allowance",
      "outputs": [
        {
          "internalType": "uint256",
          "name": "",
          "type": "uint256"
        }
      ],
      "stateMutability": "view",
      "type": "function"
    },
    {
      "inputs": [
        {
          "internalType": "address",
          "name": "spender",
          "type": "address"
        },
        {
          "internalType": "uint256",
          "name": "amount",
          "type": "uint256"
        }
      ],
      "name": "approve",
      "outputs": [
        {
          "internalType": "bool",
          "name": "",
          "type": "bool"
        }
      ],
      "stateMutability": "nonpayable",
      "type": "function"
    },
    {
      "inputs": [
        {
          "internalType": "address",
          "name": "",
          "type": "address"
        }
      ],
      "name": "balanceOf",
      "outputs": [
        {
          "internalType": "uint256",
          "name": "",
          "type": "uint256"
        }
      ],
      "stateMutability": "view",
      "type": "function"
    },
    {
      "inputs": [],
      "name": "decimals",
      "outputs": [
        {
          "internalType": "uint8",
          "name": "",
          "type": "uint8"
        }
      ],
      "stateMutability": "view",
      "type": "function"
    },
    {
      "inputs": [],
      "name": "factory",
      "outputs": [
        {
          "internalType": "address",
          "name": "",
          "type": "address"
        }
      ],
      "stateMutability": "view",
      "type": "function"
    },
    {
      "inputs": [
        {
          "internalType": "address",
          "name": "tokenIn",
          "type": "address"
        },
        {
          "internalType": "uint256",
          "name": "amountIn",
          "type": "uint256"
        }
      ],
      "name": "getAmountOut",
      "outputs": [
        {
          "internalType": "uint256",
          "name": "",
          "type": "uint256"
        }
      ],
      "stateMutability": "view",
      "type": "function"
    },
    {
      "inputs": [],
      "name": "getReserves",
      "outputs": [
        {
          "internalType": "uint256",
          "name": "",
          "type": "uint256"
        },
        {
          "internalType": "uint256",
          "name": "",
          "type": "uint256"
        }
      ],
      "stateMutability": "view",
      "type": "function"
    },
    {
      "inputs": [],
      "name": "name",
      "outputs": [
        {
          "internalType": "string",
          "name": "",
          "type": "string"
        }
      ],
      "stateMutability": "view",
      "type": "function"
    },
    {
      "inputs": [
        {
          "internalType": "uint256",
          "name": "lpAmount",
          "type": "uint256"
        }
      ],
      "name": "removeLiquidity",
      "outputs": [
        {
          "internalType": "uint256",
          "name": "out0",
          "type": "uint256"
        },
        {
          "internalType": "uint256",
          "name": "out1",
          "type": "uint256"
        }
      ],
      "stateMutability": "nonpayable",
      "type": "function"
    },
    {
      "inputs": [],
      "name": "reserve0",
      "outputs": [
        {
          "internalType": "uint256",
          "name": "",
          "type": "uint256"
        }
      ],
      "stateMutability": "view",
      "type": "function"
    },
    {
      "inputs": [],
      "name": "reserve1",
      "outputs": [
        {
          "internalType": "uint256",
          "name": "",
          "type": "uint256"
        }
      ],
      "stateMutability": "view",
      "type": "function"
    },
    {
      "inputs": [
        {
          "internalType": "address",
          "name": "tokenIn",
          "type": "address"
        },
        {
          "internalType": "uint256",
          "name": "amountIn",
          "type": "uint256"
        },
        {
          "internalType": "uint256",
          "name": "minAmountOut",
          "type": "uint256"
        }
      ],
      "name": "swap",
      "outputs": [
        {
          "internalType": "uint256",
          "name": "amountOut",
          "type": "uint256"
        }
      ],
      "stateMutability": "nonpayable",
      "type": "function"
    },
    {
      "inputs": [],
      "name": "symbol",
      "outputs": [
        {
          "internalType": "string",
          "name": "",
          "type": "string"
        }
      ],
      "stateMutability": "view",
      "type": "function"
    },
    {
      "inputs": [],
      "name": "token0",
      "outputs": [
        {
          "internalType": "address",
          "name": "",
          "type": "address"
        }
      ],
      "stateMutability": "view",
      "type": "function"
    },
    {
      "inputs": [],
      "name": "token1",
      "outputs": [
        {
          "internalType": "address",
          "name": "",
          "type": "address"
        }
      ],
      "stateMutability": "view",
      "type": "function"
    },
    {
      "inputs": [],
      "name": "totalSupply",
      "outputs": [
        {
          "internalType": "uint256",
          "name": "",
          "type": "uint256"
        }
      ],
      "stateMutability": "view",
      "type": "function"
    },
    {
      "inputs": [
        {
          "internalType": "address",
          "name": "to",
          "type": "address"
        },
        {
          "internalType": "uint256",
          "name": "amount",
          "type": "uint256"
        }
      ],
      "name": "transfer",
      "outputs": [
        {
          "internalType": "bool",
          "name": "",
          "type": "bool"
        }
      ],
      "stateMutability": "nonpayable",
      "type": "function"
    },
    {
      "inputs": [
        {
          "internalType": "address",
          "name": "from",
          "type": "address"
        },
        {
          "internalType": "address",
          "name": "to",
          "type": "address"
        },
        {
          "internalType": "uint256",
          "name": "amount",
          "type": "uint256"
        }
      ],
      "name": "transferFrom",
      "outputs": [
        {
          "internalType": "bool",
          "name": "",
          "type": "bool"
        }
      ],
      "stateMutability": "nonpayable",
      "type": "function"
    }
  ],
  "bytecode": "0x60806040523480156200001157600080fd5b5060405162002b1838038062002b1883398181016040528101906200003791906200028a565b600073ffffffffffffffffffffffffffffffffffffffff168273ffffffffffffffffffffffffffffffffffffffff1614158015620000a25750600073ffffffffffffffffffffffffffffffffffffffff168173ffffffffffffffffffffffffffffffffffffffff1614155b620000e4576040517f08c379a0000000000000000000000000000000000000000000000000000000008152600401620000db9062000332565b60405180910390fd5b8073ffffffffffffffffffffffffffffffffffffffff168273ffffffffffffffffffffffffffffffffffffffff160362000155576040517f08c379a00000000000000000000000000000000000000000000000000000000081526004016200014c90620003a4565b60405180910390fd5b81600360006101000a81548173ffffffffffffffffffffffffffffffffffffffff021916908373ffffffffffffffffffffffffffffffffffffffff16021790555080600460006101000a81548173ffffffffffffffffffffffffffffffffffffffff021916908373ffffffffffffffffffffffffffffffffffffffff16021790555033600760006101000a81548173ffffffffffffffffffffffffffffffffffffffff021916908373ffffffffffffffffffffffffffffffffffffffff1602179055505050620003c6565b600080fd5b600073ffffffffffffffffffffffffffffffffffffffff82169050919050565b6000620002528262000225565b9050919050565b620002648162000245565b81146200027057600080fd5b50565b600081519050620002848162000259565b92915050565b60008060408385031215620002a457620002a362000220565b5b6000620002b48582860162000273565b9250506020620002c78582860162000273565b9150509250929050565b600082825260208201905092915050565b7f5a65726f20616464726573730000000000000000000000000000000000000000600082015250565b60006200031a600c83620002d1565b91506200032782620002e2565b602082019050919050565b600060208201905081810360008301526200034d816200030b565b9050919050565b7f53616d6520746f6b656e00000000000000000000000000000000000000000000600082015250565b60006200038c600a83620002d1565b9150620003998262000354565b602082019050919050565b60006020820190508181036000830152620003bf816200037d565b9050919050565b61274280620003d66000396000f3fe608060405234801561001057600080fd5b50600436106101215760003560e01c806370a08231116100ad578063a9059cbb11610071578063a9059cbb14610338578063c45a015514610368578063ca706bcf14610386578063d21220a7146103b6578063dd62ed3e146103d457610121565b806370a082311461025957806395d89b41146102895780639c8f9f23146102a75780639cd441da146102d85780639f1d0f591461030857610121565b806318160ddd116100f457806318160ddd146101b157806323b872dd146101cf578063313ce567146101ff578063443cb4bc1461021d5780635a76f25e1461023b57610121565b806306fdde03146101265780630902f1ac14610144578063095ea7b3146101635780630dfe168114610193575b600080fd5b61012e610404565b60405161013b9190611a95565b60405180910390f35b61014c61043d565b60405161015a929190611ad0565b60405180910390f35b61017d60048036038101906101789190611b88565b61044e565b60405161018a9190611be3565b60405180910390f35b61019b610540565b6040516101a89190611c0d565b60405180910390f35b6101b9610566565b6040516101c69190611c28565b60405180910390f35b6101e960048036038101906101e49190611c43565b61056c565b6040516101f69190611be3565b60405180910390f35b6102076106fa565b6040516102149190611cb2565b60405180910390f35b6102256106ff565b6040516102329190611c28565b60405180910390f35b610243610705565b6040516102509190611c28565b60405180910390f35b610273600480360381019061026e9190611ccd565b61070b565b6040516102809190611c28565b60405180910390f35b610291610723565b60405161029e9190611a95565b60405180910390f35b6102c160048036038101906102bc9190611cfa565b61075c565b6040516102cf929190611ad0565b60405180910390f35b6102f260048036038101906102ed9190611d27565b610a20565b6040516102ff9190611c28565b60405180910390f35b610322600480360381019061031d9190611d67565b610ce3565b60405161032f9190611c28565b60405180910390f35b610352600480360381019061034d9190611b88565b61110c565b60405161035f9190611be3565b60405180910390f35b610370611121565b60405161037d9190611c0d565b60405180910390f35b6103a0600480360381019061039b9190611b88565b611147565b6040516103ad9190611c28565b60405180910390f35b6103be61131e565b6040516103cb9190611c0d565b60405180910390f35b6103ee60048036038101906103e99190611dba565b611344565b6040516103fb9190611c28565b60405180910390f35b6040518060400160405280600b81526020017f4f504e2053776170204c5000000000000000000000000000000000000000000081525081565b600080600554600654915091509091565b600081600260003373ffffffffffffffffffffffffffffffffffffffff1673ffffffffffffffffffffffffffffffffffffffff16815260200190815260200160002060008573ffffffffffffffffffffffffffffffffffffffff1673ffffffffffffffffffffffffffffffffffffffff168152602001908152602001600020819055508273ffffffffffffffffffffffffffffffffffffffff163373ffffffffffffffffffffffffffffffffffffffff167f8c5be1e5ebec7d5bd14f71427d1e84f3dd0314c0f7b2291e5b200ac8c7c3b9258460405161052e9190611c28565b60405180910390a36001905092915050565b600360009054906101000a900473ffffffffffffffffffffffffffffffffffffffff1681565b60005481565b600080600260008673ffffffffffffffffffffffffffffffffffffffff1673ffffffffffffffffffffffffffffffffffffffff16815260200190815260200160002060003373ffffffffffffffffffffffffffffffffffffffff1673ffffffffffffffffffffffffffffffffffffffff1681526020019081526020016000205490507fffffffffffffffffffffffffffffffffffffffffffffffffffffffffffffffff81146106e55782811015610658576040517f08c379a000000000000000000000000000000000000000000000000000000000815260040161064f90611e46565b60405180910390fd5b82816106649190611e95565b600260008773ffffffffffffffffffffffffffffffffffffffff1673ffffffffffffffffffffffffffffffffffffffff16815260200190815260200160002060003373ffffffffffffffffffffffffffffffffffffffff1673ffffffffffffffffffffffffffffffffffffffff168152602001908152602001600020819055505b6106f0858585611369565b9150509392505050565b601281565b60055481565b60065481565b60016020528060005260406000206000915090505481565b6040518060400160405280600681526020017f4f504e2d4c50000000000000000000000000000000000000000000000000000081525081565b600080600760149054906101000a900460ff16156107af576040517f08c379a00000000000000000000000000000000000000000000000000000000081526004016107a690611f15565b60405180910390fd5b6001600760146101000a81548160ff0219169083151502179055506000831161080d576040517f08c379a000000000000000000000000000000000000000000000000000000000815260040161080490611f81565b60405180910390fd5b82600160003373ffffffffffffffffffffffffffffffffffffffff1673ffffffffffffffffffffffffffffffffffffffff16815260200190815260200160002054101561088f576040517f08c379a000000000000000000000000000000000000000000000000000000000815260040161088690611fed565b60405180910390fd5b600054600554846108a0919061200d565b6108aa919061207e565b9150600054600654846108bd919061200d565b6108c7919061207e565b90506000821180156108d95750600081115b610918576040517f08c379a000000000000000000000000000000000000000000000000000000000815260040161090f906120fb565b60405180910390fd5b6109223384611509565b81600560008282546109349190611e95565b92505081905550806006600082825461094d9190611e95565b92505081905550610981600360009054906101000a900473ffffffffffffffffffffffffffffffffffffffff1633846115e1565b6109ae600460009054906101000a900473ffffffffffffffffffffffffffffffffffffffff1633836115e1565b3373ffffffffffffffffffffffffffffffffffffffff167f1dc8bb69df2b8e91fbdcbfcf93d951b3f0000f085a95fe3f7946d6161439245d8383866040516109f89392919061211b565b60405180910390a26000600760146101000a81548160ff021916908315150217905550915091565b6000600760149054906101000a900460ff1615610a72576040517f08c379a0000000000000000000000000000000000000000000000000000000008152600401610a6990611f15565b60405180910390fd5b6001600760146101000a81548160ff021916908315150217905550600083118015610a9d5750600082115b610adc576040517f08c379a0000000000000000000000000000000000000000000000000000000008152600401610ad39061219e565b60405180910390fd5b610b0a600360009054906101000a900473ffffffffffffffffffffffffffffffffffffffff1633308661174e565b610b38600460009054906101000a900473ffffffffffffffffffffffffffffffffffffffff1633308561174e565b6000805403610b9f57610b558284610b50919061200d565b6118be565b905060008111610b9a576040517f08c379a0000000000000000000000000000000000000000000000000000000008152600401610b919061220a565b60405180910390fd5b610bf1565b600060055460005485610bb2919061200d565b610bbc919061207e565b9050600060065460005485610bd1919061200d565b610bdb919061207e565b9050808210610bea5780610bec565b815b925050505b60008111610c34576040517f08c379a0000000000000000000000000000000000000000000000000000000008152600401610c2b90612276565b60405180910390fd5b610c3e338261192d565b8260056000828254610c509190612296565b925050819055508160066000828254610c699190612296565b925050819055503373ffffffffffffffffffffffffffffffffffffffff167f64b83944e79c3ce8d4c297411de637c3e102d064677aac0c163976ebdcd6f50e848484604051610cba9392919061211b565b60405180910390a26000600760146101000a81548160ff02191690831515021790555092915050565b6000600760149054906101000a900460ff1615610d35576040517f08c379a0000000000000000000000000000000000000000000000000000000008152600401610d2c90611f15565b60405180910390fd5b6001600760146101000a81548160ff021916908315150217905550600360009054906101000a900473ffffffffffffffffffffffffffffffffffffffff1673ffffffffffffffffffffffffffffffffffffffff168473ffffffffffffffffffffffffffffffffffffffff161480610df95750600460009054906101000a900473ffffffffffffffffffffffffffffffffffffffff1673ffffffffffffffffffffffffffffffffffffffff168473ffffffffffffffffffffffffffffffffffffffff16145b610e38576040517f08c379a0000000000000000000000000000000000000000000000000000000008152600401610e2f90612316565b60405180910390fd5b60008311610e7b576040517f08c379a0000000000000000000000000000000000000000000000000000000008152600401610e7290612382565b60405180910390fd5b6000600360009054906101000a900473ffffffffffffffffffffffffffffffffffffffff1673ffffffffffffffffffffffffffffffffffffffff168573ffffffffffffffffffffffffffffffffffffffff1614905060008082610ee357600654600554610eea565b6005546006545b91509150610efa8733308961174e565b60006103e587610f0a919061200d565b9050806103e884610f1b919061200d565b610f259190612296565b8183610f31919061200d565b610f3b919061207e565b945085851015610f80576040517f08c379a0000000000000000000000000000000000000000000000000000000008152600401610f77906123ee565b60405180910390fd5b60008511610fc3576040517f08c379a0000000000000000000000000000000000000000000000000000000008152600401610fba9061245a565b60405180910390fd5b8315611000578660056000828254610fdb9190612296565b925050819055508460066000828254610ff49190611e95565b92505081905550611033565b86600660008282546110129190612296565b92505081905550846005600082825461102b9190611e95565b925050819055505b60008461106257600360009054906101000a900473ffffffffffffffffffffffffffffffffffffffff16611086565b600460009054906101000a900473ffffffffffffffffffffffffffffffffffffffff165b90506110938133886115e1565b3373ffffffffffffffffffffffffffffffffffffffff167ffa2dda1cc1b86e41239702756b13effbc1a092b5c57e3ad320fbe4f3b13fe2358a8a896040516110dd9392919061247a565b60405180910390a250505050506000600760146101000a81548160ff0219169083151502179055509392505050565b6000611119338484611369565b905092915050565b600760009054906101000a900473ffffffffffffffffffffffffffffffffffffffff1681565b6000600360009054906101000a900473ffffffffffffffffffffffffffffffffffffffff1673ffffffffffffffffffffffffffffffffffffffff168373ffffffffffffffffffffffffffffffffffffffff1614806111f25750600460009054906101000a900473ffffffffffffffffffffffffffffffffffffffff1673ffffffffffffffffffffffffffffffffffffffff168373ffffffffffffffffffffffffffffffffffffffff16145b611231576040517f08c379a000000000000000000000000000000000000000000000000000000000815260040161122890612316565b60405180910390fd5b600082148061124257506000600554145b8061124f57506000600654145b1561125d5760009050611318565b6000600360009054906101000a900473ffffffffffffffffffffffffffffffffffffffff1673ffffffffffffffffffffffffffffffffffffffff168473ffffffffffffffffffffffffffffffffffffffff16149050600080826112c5576006546005546112cc565b6005546006545b9150915060006103e5866112e0919061200d565b9050806103e8846112f1919061200d565b6112fb9190612296565b8183611307919061200d565b611311919061207e565b9450505050505b92915050565b600460009054906101000a900473ffffffffffffffffffffffffffffffffffffffff1681565b6002602052816000526040600020602052806000526040600020600091509150505481565b600081600160008673ffffffffffffffffffffffffffffffffffffffff1673ffffffffffffffffffffffffffffffffffffffff1681526020019081526020016000205410156113ed576040517f08c379a00000000000000000000000000000000000000000000000000000000081526004016113e4906124fd565b60405180910390fd5b81600160008673ffffffffffffffffffffffffffffffffffffffff1673ffffffffffffffffffffffffffffffffffffffff168152602001908152602001600020600082825461143c9190611e95565b9250508190555081600160008573ffffffffffffffffffffffffffffffffffffffff1673ffffffffffffffffffffffffffffffffffffffff16815260200190815260200160002060008282546114929190612296565b925050819055508273ffffffffffffffffffffffffffffffffffffffff168473ffffffffffffffffffffffffffffffffffffffff167fddf252ad1be2c89b69c2b068fc378daa952ba7f163c4a11628f55a4df523b3ef846040516114f69190611c28565b60405180910390a3600190509392505050565b80600160008473ffffffffffffffffffffffffffffffffffffffff1673ffffffffffffffffffffffffffffffffffffffff16815260200190815260200160002060008282546115589190611e95565b92505081905550806000808282546115709190611e95565b92505081905550600073ffffffffffffffffffffffffffffffffffffffff168273ffffffffffffffffffffffffffffffffffffffff167fddf252ad1be2c89b69c2b068fc378daa952ba7f163c4a11628f55a4df523b3ef836040516115d59190611c28565b60405180910390a35050565b6000808473ffffffffffffffffffffffffffffffffffffffff16848460405160240161160e92919061251d565b6040516020818303038152906040527fa9059cbb000000000000000000000000000000000000000000000000000000007bffffffffffffffffffffffffffffffffffffffffffffffffffffffff19166020820180517bffffffffffffffffffffffffffffffffffffffffffffffffffffffff8381831617835250505050604051611698919061258d565b6000604051808303816000865af19150503d80600081146116d5576040519150601f19603f3d011682016040523d82523d6000602084013e6116da565b606091505b5091509150818015611708575060008151148061170757508080602001905181019061170691906125d0565b5b5b611747576040517f08c379a000000000000000000000000000000000000000000000000000000000815260040161173e90612649565b60405180910390fd5b5050505050565b6000808573ffffffffffffffffffffffffffffffffffffffff1685858560405160240161177d93929190612669565b6040516020818303038152906040527f23b872dd000000000000000000000000000000000000000000000000000000007bffffffffffffffffffffffffffffffffffffffffffffffffffffffff19166020820180517bffffffffffffffffffffffffffffffffffffffffffffffffffffffff8381831617835250505050604051611807919061258d565b6000604051808303816000865af19150503d8060008114611844576040519150601f19603f3d011682016040523d82523d6000602084013e611849565b606091505b5091509150818015611877575060008151148061187657508080602001905181019061187591906125d0565b5b5b6118b6576040517f08c379a00000000000000000000000000000000000000000000000000000000081526004016118ad906126ec565b60405180910390fd5b505050505050565b60008082036118d05760009050611928565b819050600060026001836118e49190612296565b6118ee919061207e565b90505b8181101561192657809150600281828561190b919061207e565b6119159190612296565b61191f919061207e565b90506118f1565b505b919050565b8060008082825461193e9190612296565b9250508190555080600160008473ffffffffffffffffffffffffffffffffffffffff1673ffffffffffffffffffffffffffffffffffffffff16815260200190815260200160002060008282546119949190612296565b925050819055508173ffffffffffffffffffffffffffffffffffffffff16600073ffffffffffffffffffffffffffffffffffffffff167fddf252ad1be2c89b69c2b068fc378daa952ba7f163c4a11628f55a4df523b3ef836040516119f99190611c28565b60405180910390a35050565b600081519050919050565b600082825260208201905092915050565b60005b83811015611a3f578082015181840152602081019050611a24565b60008484015250505050565b6000601f19601f8301169050919050565b6000611a6782611a05565b611a718185611a10565b9350611a81818560208601611a21565b611a8a81611a4b565b840191505092915050565b60006020820190508181036000830152611aaf8184611a5c565b905092915050565b6000819050919050565b611aca81611ab7565b82525050565b6000604082019050611ae56000830185611ac1565b611af26020830184611ac1565b9392505050565b600080fd5b600073ffffffffffffffffffffffffffffffffffffffff82169050919050565b6000611b2982611afe565b9050919050565b611b3981611b1e565b8114611b4457600080fd5b50565b600081359050611b5681611b30565b92915050565b611b6581611ab7565b8114611b7057600080fd5b50565b600081359050611b8281611b5c565b92915050565b60008060408385031215611b9f57611b9e611af9565b5b6000611bad85828601611b47565b9250506020611bbe85828601611b73565b9150509250929050565b60008115159050919050565b611bdd81611bc8565b82525050565b6000602082019050611bf86000830184611bd4565b92915050565b611c0781611b1e565b82525050565b6000602082019050611c226000830184611bfe565b92915050565b6000602082019050611c3d6000830184611ac1565b92915050565b600080600060608486031215611c5c57611c5b611af9565b5b6000611c6a86828701611b47565b9350506020611c7b86828701611b47565b9250506040611c8c86828701611b73565b9150509250925092565b600060ff82169050919050565b611cac81611c96565b82525050565b6000602082019050611cc76000830184611ca3565b92915050565b600060208284031215611ce357611ce2611af9565b5b6000611cf184828501611b47565b91505092915050565b600060208284031215611d1057611d0f611af9565b5b6000611d1e84828501611b73565b91505092915050565b60008060408385031215611d3e57611d3d611af9565b5b6000611d4c85828601611b73565b9250506020611d5d85828601611b73565b9150509250929050565b600080600060608486031215611d8057611d7f611af9565b5b6000611d8e86828701611b47565b9350506020611d9f86828701611b73565b9250506040611db086828701611b73565b9150509250925092565b60008060408385031215611dd157611dd0611af9565b5b6000611ddf85828601611b47565b9250506020611df085828601611b47565b9150509250929050565b7f4c503a20616c6c6f77616e636500000000000000000000000000000000000000600082015250565b6000611e30600d83611a10565b9150611e3b82611dfa565b602082019050919050565b60006020820190508181036000830152611e5f81611e23565b9050919050565b7f4e487b7100000000000000000000000000000000000000000000000000000000600052601160045260246000fd5b6000611ea082611ab7565b9150611eab83611ab7565b9250828203905081811115611ec357611ec2611e66565b5b92915050565b7f5265656e7472616e637947756172640000000000000000000000000000000000600082015250565b6000611eff600f83611a10565b9150611f0a82611ec9565b602082019050919050565b60006020820190508181036000830152611f2e81611ef2565b9050919050565b7f5a65726f204c5000000000000000000000000000000000000000000000000000600082015250565b6000611f6b600783611a10565b9150611f7682611f35565b602082019050919050565b60006020820190508181036000830152611f9a81611f5e565b9050919050565b7f496e73756666696369656e74204c500000000000000000000000000000000000600082015250565b6000611fd7600f83611a10565b9150611fe282611fa1565b602082019050919050565b6000602082019050818103600083015261200681611fca565b9050919050565b600061201882611ab7565b915061202383611ab7565b925082820261203181611ab7565b9150828204841483151761204857612047611e66565b5b5092915050565b7f4e487b7100000000000000000000000000000000000000000000000000000000600052601260045260246000fd5b600061208982611ab7565b915061209483611ab7565b9250826120a4576120a361204f565b5b828204905092915050565b7f496e73756666696369656e74206c6971756964697479206275726e6564000000600082015250565b60006120e5601d83611a10565b91506120f0826120af565b602082019050919050565b60006020820190508181036000830152612114816120d8565b9050919050565b60006060820190506121306000830186611ac1565b61213d6020830185611ac1565b61214a6040830184611ac1565b949350505050565b7f5a65726f20616d6f756e74730000000000000000000000000000000000000000600082015250565b6000612188600c83611a10565b915061219382612152565b602082019050919050565b600060208201905081810360008301526121b78161217b565b9050919050565b7f496e73756666696369656e7420696e697469616c206c69717569646974790000600082015250565b60006121f4601e83611a10565b91506121ff826121be565b602082019050919050565b60006020820190508181036000830152612223816121e7565b9050919050565b7f5a65726f204c50206d696e746564000000000000000000000000000000000000600082015250565b6000612260600e83611a10565b915061226b8261222a565b602082019050919050565b6000602082019050818103600083015261228f81612253565b9050919050565b60006122a182611ab7565b91506122ac83611ab7565b92508282019050808211156122c4576122c3611e66565b5b92915050565b7f496e76616c696420746f6b656e00000000000000000000000000000000000000600082015250565b6000612300600d83611a10565b915061230b826122ca565b602082019050919050565b6000602082019050818103600083015261232f816122f3565b9050919050565b7f5a65726f20696e70757400000000000000000000000000000000000000000000600082015250565b600061236c600a83611a10565b915061237782612336565b602082019050919050565b6000602082019050818103600083015261239b8161235f565b9050919050565b7f536c697070616765206578636565646564000000000000000000000000000000600082015250565b60006123d8601183611a10565b91506123e3826123a2565b602082019050919050565b60006020820190508181036000830152612407816123cb565b9050919050565b7f5a65726f206f7574707574000000000000000000000000000000000000000000600082015250565b6000612444600b83611a10565b915061244f8261240e565b602082019050919050565b6000602082019050818103600083015261247381612437565b9050919050565b600060608201905061248f6000830186611bfe565b61249c6020830185611ac1565b6124a96040830184611ac1565b949350505050565b7f4c503a2062616c616e6365000000000000000000000000000000000000000000600082015250565b60006124e7600b83611a10565b91506124f2826124b1565b602082019050919050565b60006020820190508181036000830152612516816124da565b9050919050565b60006040820190506125326000830185611bfe565b61253f6020830184611ac1565b9392505050565b600081519050919050565b600081905092915050565b600061256782612546565b6125718185612551565b9350612581818560208601611a21565b80840191505092915050565b6000612599828461255c565b915081905092915050565b6125ad81611bc8565b81146125b857600080fd5b50565b6000815190506125ca816125a4565b92915050565b6000602082840312156125e6576125e5611af9565b5b60006125f4848285016125bb565b91505092915050565b7f5472616e73666572206661696c65640000000000000000000000000000000000600082015250565b6000612633600f83611a10565b915061263e826125fd565b602082019050919050565b6000602082019050818103600083015261266281612626565b9050919050565b600060608201905061267e6000830186611bfe565b61268b6020830185611bfe565b6126986040830184611ac1565b949350505050565b7f5472616e7366657246726f6d206661696c656400000000000000000000000000600082015250565b60006126d6601383611a10565b91506126e1826126a0565b602082019050919050565b60006020820190508181036000830152612705816126c9565b905091905056fea2646970667358221220367db650f94a2f0b6099b8e16d999120c541b4118a67bbc0b9815822fbf705bb64736f6c63430008140033",
  "linkReferences": {},
  "deployedLinkReferences": {}
}