{
  "_format": "hh-sol-artifact-1",
  "contractName": "OPNToken",
  "sourceName": "contracts/OPNToken.sol",
  "abi": [
    {
      "inputs": [
        {
          "internalType": "string",
          "name": "_name",
          "type": "string"
        },
        {
          "internalType": "string",
          "name": "_symbol",
          "type": "string"
        },
        {
          "internalType": "uint256",
          "name": "_initialSupply",
          "type": "uint256"
        }
      ],
      "stateMutability": "nonpayable",
      "type": "constructor"
    },
    {
      "anonymous": false,
      "inputs": [
        {
          "indexed": true,
          "internalType": "address",
          "name": "owner",
          "type": "address"
        },
        {
          "indexed": true,
          "internalType": "address",
          "name": "spender",
          "type": "address"
        },
        {
          "indexed": false,
          "internalType": "uint256",
          "name": "value",
          "type": "uint256"
        }
      ],
      "name": "Approval",
      "type": "event"
    },
    {
      "anonymous": false,
      "inputs": [
        {
          "indexed": true,
          "internalType": "address",
          "name": "from",
          "type": "address"
        },
        {
          "indexed": true,
          "internalType": "address",
          "name": "to",
          "type": "address"
        },
        {
          "indexed": false,
          "internalType": "uint256",
          "name": "value",
          "type": "uint256"
        }
      ],
      "name": "Transfer",
      "type": "event"
    },
    {
      "inputs": [],
      "name": "FAUCET_LIMIT",
      "outputs": [
        {
          "internalType": "uint256",
          "name": "",
          "type": "uint256"
        }
      ],
      "stateMutability": "view",
      "type": "function"
    },
    {
      "inputs": [
        {
          "internalType": "address",
          "name": "",
          "type": "address"
        },
        {
          "internalType": "address",
          "name": "",
          "type": "address"
        }
      ],
      "name": "allowance",
      "outputs": [
        {
          "internalType": "uint256",
          "name": "",
          "type": "uint256"
        }
      ],
      "stateMutability": "view",
      "type": "function"
    },
    {
      "inputs": [
        {
          "internalType": "address",
          "name": "spender",
          "type": "address"
        },
        {
          "internalType": "uint256",
          "name": "amount",
          "type": "uint256"
        }
      ],
      "name": "approve",
      "outputs": [
        {
          "internalType": "bool",
          "name": "",
          "type": "bool"
        }
      ],
      "stateMutability": "nonpayable",
      "type": "function"
    },
    {
      "inputs": [
        {
          "internalType": "address",
          "name": "",
          "type": "address"
        }
      ],
      "name": "balanceOf",
      "outputs": [
        {
          "internalType": "uint256",
          "name": "",
          "type": "uint256"
        }
      ],
      "stateMutability": "view",
      "type": "function"
    },
    {
      "inputs": [],
      "name": "decimals",
      "outputs": [
        {
          "internalType": "uint8",
          "name": "",
          "type": "uint8"
        }
      ],
      "stateMutability": "view",
      "type": "function"
    },
    {
      "inputs": [
        {
          "internalType": "uint256",
          "name": "amount",
          "type": "uint256"
        }
      ],
      "name": "faucet",
      "outputs": [],
      "stateMutability": "nonpayable",
      "type": "function"
    },
    {
      "inputs": [],
      "name": "name",
      "outputs": [
        {
          "internalType": "string",
          "name": "",
          "type": "string"
        }
      ],
      "stateMutability": "view",
      "type": "function"
    },
    {
      "inputs": [],
      "name": "symbol",
      "outputs": [
        {
          "internalType": "string",
          "name": "",
          "type": "string"
        }
      ],
      "stateMutability": "view",
      "type": "function"
    },
    {
      "inputs": [],
      "name": "totalSupply",
      "outputs": [
        {
          "internalType": "uint256",
          "name": "",
          "type": "uint256"
        }
      ],
      "stateMutability": "view",
      "type": "function"
    },
    {
      "inputs": [
        {
          "internalType": "address",
          "name": "to",
          "type": "address"
        },
        {
          "internalType": "uint256",
          "name": "amount",
          "type": "uint256"
        }
      ],
      "name": "transfer",
      "outputs": [
        {
          "internalType": "bool",
          "name": "",
          "type": "bool"
        }
      ],
      "stateMutability": "nonpayable",
      "type": "function"
    },
    {
      "inputs": [
        {
          "internalType": "address",
          "name": "from",
          "type": "address"
        },
        {
          "internalType": "address",
          "name": "to",
          "type": "address"
        },
        {
          "internalType": "uint256",
          "name": "amount",
          "type": "uint256"
        }
      ],
      "name": "transferFrom",
      "outputs": [
        {
          "internalType": "bool",
          "name": "",
          "type": "bool"
        }
      ],
      "stateMutability": "nonpayable",
      "type": "function"
    }
  ],
  "bytecode": "0x60806040523480156200001157600080fd5b506040516200174b3803806200174b833981810160405281019062000037919062000323565b8260009081620000489190620005fe565b5081600190816200005a9190620005fe565b506200006d33826200007660201b60201c565b5050506200077d565b80600260008282546200008a919062000714565b9250508190555080600360008473ffffffffffffffffffffffffffffffffffffffff1673ffffffffffffffffffffffffffffffffffffffff1681526020019081526020016000206000828254620000e2919062000714565b925050819055508173ffffffffffffffffffffffffffffffffffffffff16600073ffffffffffffffffffffffffffffffffffffffff167fddf252ad1be2c89b69c2b068fc378daa952ba7f163c4a11628f55a4df523b3ef8360405162000149919062000760565b60405180910390a35050565b6000604051905090565b600080fd5b600080fd5b600080fd5b600080fd5b6000601f19601f8301169050919050565b7f4e487b7100000000000000000000000000000000000000000000000000000000600052604160045260246000fd5b620001be8262000173565b810181811067ffffffffffffffff82111715620001e057620001df62000184565b5b80604052505050565b6000620001f562000155565b9050620002038282620001b3565b919050565b600067ffffffffffffffff82111562000226576200022562000184565b5b620002318262000173565b9050602081019050919050565b60005b838110156200025e57808201518184015260208101905062000241565b60008484015250505050565b6000620002816200027b8462000208565b620001e9565b905082815260208101848484011115620002a0576200029f6200016e565b5b620002ad8482856200023e565b509392505050565b600082601f830112620002cd57620002cc62000169565b5b8151620002df8482602086016200026a565b91505092915050565b6000819050919050565b620002fd81620002e8565b81146200030957600080fd5b50565b6000815190506200031d81620002f2565b92915050565b6000806000606084860312156200033f576200033e6200015f565b5b600084015167ffffffffffffffff81111562000360576200035f62000164565b5b6200036e86828701620002b5565b935050602084015167ffffffffffffffff81111562000392576200039162000164565b5b620003a086828701620002b5565b9250506040620003b3868287016200030c565b9150509250925092565b600081519050919050565b7f4e487b7100000000000000000000000000000000000000000000000000000000600052602260045260246000fd5b600060028204905060018216806200041057607f821691505b602082108103620004265762000425620003c8565b5b50919050565b60008190508160005260206000209050919050565b60006020601f8301049050919050565b600082821b905092915050565b600060088302620004907fffffffffffffffffffffffffffffffffffffffffffffffffffffffffffffffff8262000451565b6200049c868362000451565b95508019841693508086168417925050509392505050565b6000819050919050565b6000620004df620004d9620004d384620002e8565b620004b4565b620002e8565b9050919050565b6000819050919050565b620004fb83620004be565b620005136200050a82620004e6565b8484546200045e565b825550505050565b600090565b6200052a6200051b565b62000537818484620004f0565b505050565b5b818110156200055f576200055360008262000520565b6001810190506200053d565b5050565b601f821115620005ae5762000578816200042c565b620005838462000441565b8101602085101562000593578190505b620005ab620005a28562000441565b8301826200053c565b50505b505050565b600082821c905092915050565b6000620005d360001984600802620005b3565b1980831691505092915050565b6000620005ee8383620005c0565b9150826002028217905092915050565b6200060982620003bd565b67ffffffffffffffff81111562000625576200062462000184565b5b620006318254620003f7565b6200063e82828562000563565b600060209050601f83116001811462000676576000841562000661578287015190505b6200066d8582620005e0565b865550620006dd565b601f19841662000686866200042c565b60005b82811015620006b05784890151825560018201915060208501945060208101905062000689565b86831015620006d05784890151620006cc601f891682620005c0565b8355505b6001600288020188555050505b505050505050565b7f4e487b7100000000000000000000000000000000000000000000000000000000600052601160045260246000fd5b60006200072182620002e8565b91506200072e83620002e8565b9250828201905080821115620007495762000748620006e5565b5b92915050565b6200075a81620002e8565b82525050565b60006020820190506200077760008301846200074f565b92915050565b610fbe806200078d6000396000f3fe608060405234801561001057600080fd5b50600436106100a95760003560e01c80635791589711610071578063579158971461016857806370a082311461018457806395d89b41146101b4578063a9059cbb146101d2578063c536a73714610202578063dd62ed3e14610220576100a9565b806306fdde03146100ae578063095ea7b3146100cc57806318160ddd146100fc57806323b872dd1461011a578063313ce5671461014a575b600080fd5b6100b6610250565b6040516100c39190610a62565b60405180910390f35b6100e660048036038101906100e19190610b1d565b6102de565b6040516100f39190610b78565b60405180910390f35b6101046103d0565b6040516101119190610ba2565b60405180910390f35b610134600480360381019061012f9190610bbd565b6103d6565b6040516101419190610b78565b60405180910390f35b610152610564565b60405161015f9190610c2c565b60405180910390f35b610182600480360381019061017d9190610c47565b610569565b005b61019e60048036038101906101999190610c74565b6105c3565b6040516101ab9190610ba2565b60405180910390f35b6101bc6105db565b6040516101c99190610a62565b60405180910390f35b6101ec60048036038101906101e79190610b1d565b610669565b6040516101f99190610b78565b60405180910390f35b61020a61067e565b6040516102179190610ba2565b60405180910390f35b61023a60048036038101906102359190610ca1565b61068c565b6040516102479190610ba2565b60405180910390f35b6000805461025d90610d10565b80601f016020809104026020016040519081016040528092919081815260200182805461028990610d10565b80156102d65780601f106102ab576101008083540402835291602001916102d6565b820191906000526020600020905b8154815290600101906020018083116102b957829003601f168201915b505050505081565b600081600460003373ffffffffffffffffffffffffffffffffffffffff1673ffffffffffffffffffffffffffffffffffffffff16815260200190815260200160002060008573ffffffffffffffffffffffffffffffffffffffff1673ffffffffffffffffffffffffffffffffffffffff168152602001908152602001600020819055508273ffffffffffffffffffffffffffffffffffffffff163373ffffffffffffffffffffffffffffffffffffffff167f8c5be1e5ebec7d5bd14f71427d1e84f3dd0314c0f7b2291e5b200ac8c7c3b925846040516103be9190610ba2565b60405180910390a36001905092915050565b60025481565b600080600460008673ffffffffffffffffffffffffffffffffffffffff1673ffffffffffffffffffffffffffffffffffffffff16815260200190815260200160002060003373ffffffffffffffffffffffffffffffffffffffff1673ffffffffffffffffffffffffffffffffffffffff1681526020019081526020016000205490507fffffffffffffffffffffffffffffffffffffffffffffffffffffffffffffffff811461054f57828110156104c2576040517f08c379a00000000000000000000000000000000000000000000000000000000081526004016104b990610d8d565b60405180910390fd5b82816104ce9190610ddc565b600460008773ffffffffffffffffffffffffffffffffffffffff1673ffffffffffffffffffffffffffffffffffffffff16815260200190815260200160002060003373ffffffffffffffffffffffffffffffffffffffff1673ffffffffffffffffffffffffffffffffffffffff168152602001908152602001600020819055505b61055a8585856106b1565b9150509392505050565b601281565b69021e19e0c9bab24000008111156105b6576040517f08c379a00000000000000000000000000000000000000000000000000000000081526004016105ad90610e5c565b60405180910390fd5b6105c033826108f9565b50565b60036020528060005260406000206000915090505481565b600180546105e890610d10565b80601f016020809104026020016040519081016040528092919081815260200182805461061490610d10565b80156106615780601f1061063657610100808354040283529160200191610661565b820191906000526020600020905b81548152906001019060200180831161064457829003601f168201915b505050505081565b60006106763384846106b1565b905092915050565b69021e19e0c9bab240000081565b6004602052816000526040600020602052806000526040600020600091509150505481565b60008073ffffffffffffffffffffffffffffffffffffffff168473ffffffffffffffffffffffffffffffffffffffff161415801561071c5750600073ffffffffffffffffffffffffffffffffffffffff168373ffffffffffffffffffffffffffffffffffffffff1614155b61075b576040517f08c379a000000000000000000000000000000000000000000000000000000000815260040161075290610ec8565b60405180910390fd5b81600360008673ffffffffffffffffffffffffffffffffffffffff1673ffffffffffffffffffffffffffffffffffffffff1681526020019081526020016000205410156107dd576040517f08c379a00000000000000000000000000000000000000000000000000000000081526004016107d490610f34565b60405180910390fd5b81600360008673ffffffffffffffffffffffffffffffffffffffff1673ffffffffffffffffffffffffffffffffffffffff168152602001908152602001600020600082825461082c9190610ddc565b9250508190555081600360008573ffffffffffffffffffffffffffffffffffffffff1673ffffffffffffffffffffffffffffffffffffffff16815260200190815260200160002060008282546108829190610f54565b925050819055508273ffffffffffffffffffffffffffffffffffffffff168473ffffffffffffffffffffffffffffffffffffffff167fddf252ad1be2c89b69c2b068fc378daa952ba7f163c4a11628f55a4df523b3ef846040516108e69190610ba2565b60405180910390a3600190509392505050565b806002600082825461090b9190610f54565b9250508190555080600360008473ffffffffffffffffffffffffffffffffffffffff1673ffffffffffffffffffffffffffffffffffffffff16815260200190815260200160002060008282546109619190610f54565b925050819055508173ffffffffffffffffffffffffffffffffffffffff16600073ffffffffffffffffffffffffffffffffffffffff167fddf252ad1be2c89b69c2b068fc378daa952ba7f163c4a11628f55a4df523b3ef836040516109c69190610ba2565b60405180910390a35050565b600081519050919050565b600082825260208201905092915050565b60005b83811015610a0c5780820151818401526020810190506109f1565b60008484015250505050565b6000601f19601f8301169050919050565b6000610a34826109d2565b610a3e81856109dd565b9350610a4e8185602086016109ee565b610a5781610a18565b840191505092915050565b60006020820190508181036000830152610a7c8184610a29565b905092915050565b600080fd5b600073ffffffffffffffffffffffffffffffffffffffff82169050919050565b6000610ab482610a89565b9050919050565b610ac481610aa9565b8114610acf57600080fd5b50565b600081359050610ae181610abb565b92915050565b6000819050919050565b610afa81610ae7565b8114610b0557600080fd5b50565b600081359050610b1781610af1565b92915050565b60008060408385031215610b3457610b33610a84565b5b6000610b4285828601610ad2565b9250506020610b5385828601610b08565b9150509250929050565b60008115159050919050565b610b7281610b5d565b82525050565b6000602082019050610b8d6000830184610b69565b92915050565b610b9c81610ae7565b82525050565b6000602082019050610bb76000830184610b93565b92915050565b600080600060608486031215610bd657610bd5610a84565b5b6000610be486828701610ad2565b9350506020610bf586828701610ad2565b9250506040610c0686828701610b08565b9150509250925092565b600060ff82169050919050565b610c2681610c10565b82525050565b6000602082019050610c416000830184610c1d565b92915050565b600060208284031215610c5d57610c5c610a84565b5b6000610c6b84828501610b08565b91505092915050565b600060208284031215610c8a57610c89610a84565b5b6000610c9884828501610ad2565b91505092915050565b60008060408385031215610cb857610cb7610a84565b5b6000610cc685828601610ad2565b9250506020610cd785828601610ad2565b9150509250929050565b7f4e487b7100000000000000000000000000000000000000000000000000000000600052602260045260246000fd5b60006002820490506001821680610d2857607f821691505b602082108103610d3b57610d3a610ce1565b5b50919050565b7f45524332303a20616c6c6f77616e636500000000000000000000000000000000600082015250565b6000610d776010836109dd565b9150610d8282610d41565b602082019050919050565b60006020820190508181036000830152610da681610d6a565b9050919050565b7f4e487b7100000000000000000000000000000000000000000000000000000000600052601160045260246000fd5b6000610de782610ae7565b9150610df283610ae7565b9250828203905081811115610e0a57610e09610dad565b5b92915050565b7f4661756365743a206d61782031302030303020746f6b656e7300000000000000600082015250565b6000610e466019836109dd565b9150610e5182610e10565b602082019050919050565b60006020820190508181036000830152610e7581610e39565b9050919050565b7f45524332303a207a65726f206164647200000000000000000000000000000000600082015250565b6000610eb26010836109dd565b9150610ebd82610e7c565b602082019050919050565b60006020820190508181036000830152610ee181610ea5565b9050919050565b7f45524332303a2062616c616e6365000000000000000000000000000000000000600082015250565b6000610f1e600e836109dd565b9150610f2982610ee8565b602082019050919050565b60006020820190508181036000830152610f4d81610f11565b9050919050565b6000610f5f82610ae7565b9150610f6a83610ae7565b9250828201905080821115610f8257610f81610dad565b5b9291505056fea2646970667358221220a40df4acf18743827fb5b0bd4ace55884c52c05eca7468cbb3a31d5dd76c8f4864736f6c63430008140033",
  "linkReferences": {},
  "deployedLinkReferences": {}
}